{
	"trigger": {
		"metric": "base_fee_per_gas",
		"eq": "<",
		"value": 140000000000
	},
	"tx": {
		"from": "0x8626f6940e2eb28930efb4cef49b2d1f2c9c1199",
		"to": "0xc02aaa39b223fe8d0a0e5c4f27ead9083c756cc2",
		"signed": "02f8b3827a690885174876e80085174876e80082b5d794c02aaa39b223fe8d0a0e5c4f27ead9083c756cc280b844095ea7b3000000000000000000000000dd2fd4581271e230360230f9337d5c0430bf44c0ffffffffffffffffffffffffffffffffffffffffffffffffffffffffffffffffc001a0be77cdf485193dff9cf7a4a0699401f5f405103aed79497b10afe159b622c67ba0725ad3f47897e7ec15a7ba7cc0939d7442aed34b4c72958187ceaa0e7c4bd8ec",
		"nonce": 8
	}
}